:0400000081EF00F09C
:100008000D7A0D7A0D7A0D7A40000D7A40000D7A3E
:100018000D7A0D7A0D7A0D7A0D7A0D7A0D7A0D7AA0
:100028000D7A4000400040000D7A0D7A0D7A0D7A65
:100038000D7A0D7A0D7A0D7A0D7A0D7A0D7AC675CC
:100048000D7A0D7A0D7A0D7A400040000D7A0D7AFE
:100058000D7A0D7A0D7A40000D7A0D7A0D7A0D7AA7
:100068000D7A0D7A0D7A0D7A0D7A0D7A0D7A0D7A50
:100078000D7A0D7A0D7A0D7A40000D7A0D7A0D7A87
:100088000D7A0D7A0D7A0D7A0D7A0D7A0D7A0D7A30
:1000980023770D7A0D7A0D7A40000D7A40004000E2
:1000A8000D7A0D7A0D7A0D7A0D7A0D7A0D7A0D7A10
:1000B8000D7A0D7A0D7A0D7A0D7A0D7A0D7A0D7A00
:1000C8000D7A0D7A0D7A0D7A0D7A0D7A0D7A0D7AF0
:1000D8000D7A0D7A0D7A0D7A0D7A0D7A0D7A0D7AE0
:1000E80040000D7A0D7A0D7A400040004000400033
:0E00F8000D7A0D7A0D7A0D7AFF0035EFE6F0E5
:109FAE0000819FE0FC407E80FC00000400E95E40E2
:109FBE0003444556FFFFFFFF0500000000000000B0
:109FCE000000000000000000000000000000000083
:109FDE000000000000000000000000000000000073
:109FEE000000000000000000000000000000000063
:109FFE000000000000000000000000000000000053
:10A00E000000000000000000000000000000000042
:10A01E000000000000000000000000000000000032
:10A02E000000000000000000000000000000000022
:10A03E000000000000000000000000000000000012
:10A04E000000000000000000000000000000000002
:10A05E0000000000000000000000000000000000F2
:10A06E0000000000000000000000000000000000E2
:10A07E0000000000000000000000000000000000D2
:10A08E00000000000000000000000003800000003F
:10A09E0000002FFF00000000000000000000000084
:10A0AE00000700000000000000000000000000009B
:10A0BE000000000000000000048022082D084E550C
:10A0CE004C202020202000000000FFFF0000000098
:10A0DE000000FF000100FFFFFFFF00000000000076
:10A0EE000000000000000000000000000000000062
:10A0FE000000000000000000000000000000000052
:10A10E00000000000000000000000E00050000002E
:10A11E0000000000000000003303000001000000FA
:10A12E00C8A6C8A5C8A5C8A51F1C1F1E1F1E1F1F79
:10A13E001E1F1E1FFFFFFFFF000000E9060D0A4451
:10A14E006976696465206F766572666C6F770D0A45
:10A15E0013A8011801000024000000002C002E009E
:10A16E002D003A00000200B80800002C00182C0147
:10A17E00009C000000002C002E002D003A00000272
:10A18E0000B80800002C0018310100444D000000FA
:10A19E002E002C002E002E00030201B80800003BFA
:10A1AE000018210100460000000020002C002F00A6
:10A1BE003A00030201B80800003B00185102009D4E
:10A1CE00000000002C002E002D003A00000001B807
:10A1DE000800002C00FF000000000000000000003E
:10A1EE000000000000000000000000000000000061
:10A1FE000000000000000000000000000000000051
:10A20E000000000000000000000000000000000040
:10A21E000000000000000000000000000000000030
:10A22E000000000000000000000000000000000020
:10A23E000000000000000000000000000000000010
:10A24E000000000000000000000000000000000000
:10A25E0000000000000000000000000000000000F0
:10A26E0000000000000000000000000000000000E0
:10A27E0000000000000000000000000000000000D0
:10A28E0000000000000000000000000000000000C0
:10A29E0000000000000000000000000000000000B0
:10A2AE0000000000000000000000000000000000A0
:10A2BE000000000000000000000000000000000090
:10A2CE000000000000000000000000000000000080
:10A2DE000000000000000000000000000000000070
:10A2EE00000000000000000000000000002E8B2681
:10A2FE003A032E8E163C03F3A4FC268916E1008B3E
:10A30E0036F000268C06F200268C06F6008A0E0029
:10A31E000132ED268C441A26C64417FF83C65EE230
:10A32E00F283EE5E26C7441AFFFF8B3E3E03268C59
:10A33E0006050126893E030126C74504FF0026C6F1
:10A34E0045060026C705FFFF26C74502FFFF06424A
:10A35E00C6068D01FFE8950707502EA18B0126A397
:10A36E008B0126C6068D01004826A3EE001E8ED850
:10A37E00C60600005AC70601000000262B06E300A1
:10A38E00F7D848A303001F58BF0D00B003AABFF0B3
:10A39E0000CB0000000000000000000000000000E4
:10A3AE00000000000000000000000000000000009F
:10A3BE00000000000000000000000000000000008F
:10A3CE00000000000000000000000000000000007F
:10A3DE00000000000000000000000000000000006F
:10A3EE00000000000000000000000000000000005F
:10A3FE00000000000000000000000000000000004F
:10A40E00000000000000000000000000000000003E
:10A41E00000000000000000000000000000000002E
:10A42E00000000000000000000000000000000001E
:10A43E00000000000000000000000000000000000E
:10A44E0000000000000000000000000000000000FE
:10A45E0000000000000000000000000000000000EE
:10A46E0000000000000000000000000000000000DE
:10A47E0000000000000000000000000000000000CE
:10A48E0000000000000000000000000000000000BE
:10A49E0000000000000000000000000000000000AE
:10A4AE00000000000000000000000000000000009E
:10A4BE00000000000000000000000000000000008E
:10A4CE00000000000000000000000000000000007E
:10A4DE00000000000000000000000000000000006E
:10A4EE00000000000000000000000000000000005E
:10A4FE00000000000000000000000000000000004E
:10A50E00000000000000000000000000000000003D
:10A51E00000000000000000000000000000000002D
:10A52E00000000000000000000000000000000001D
:10A53E00000000000000000000000000000000000D
:10A54E0000000000000000000000000000000000FD
:10A55E0000000000000000000000000000000000ED
:10A56E0000000000000000000000000000000000DD
:10A57E0000000000000000000000000000000000CD
:10A58E0000000D0A4D6963726F736F6674204D5330
:10A59E002D444F532076657273696F6E20322E31C3
:10A5AE00310D0A436F7079726967687420313938DA
:10A5BE00312C38322C3833204D6963726F736F66CD
:10A5CE007420436F72702E0D0A24B400EB2880FCA9
:10A5DE00F87203E9CA0180FC5890761AB000CF5881
:10A5EE00582E8F0665039CFA502EFF36650380F9B0
:10A5FE00249077E88AE1E8DC002E8C1EC8032E89B1
:10A60E001EC6038CCB8EDBFE062301A16503A3B20F
:10A61E0005A16703A3B0055850892665038C1667FC
:10A62E00038E1E8B0189262E008C1630008CCB8E4D
:10A63E00D3BC7004FB0E1F32FF883E2601C60627D0
:10A64E000101C606D500008ADCD1E3FC0AE4741BC6
:10A65E0080FC0C760A80FC51740580FC50750C80D1
:10A66E003E240100751EBCB005EB19C60624010080
:10A67E00C6062501FFBC1005F6062801FF7405501D
:10A68E00E8642458FF368E012EFFB73E078B1EC698
:10A69E00038E1EC803C3FA2EFE0E23012E8B2665D3
:10A6AE00032E8E1667038BEC8846002EA1B2052E64
:10A6BE00A365032EA1B0052EA36703E80300CF0008
:10A6CE00002E8F061207585B595A5E5F5D1F072ECC
:10A6DE00FF361207C32E8F061207061E5557565207
:10A6EE00515350EBEA2EC5366503C36309F134FAB4
:10A6FE00348D35AA35B035A30ACF0AC435D335DF2C
:10A70E0035A037AA37750A2D0DA8290E2A8D09EE08
:10A71E00099E282E283628802A1C29F007280D008D
:10A72E000D31093309F007F0070B0DF00746284EDF
:10A73E0028240A620A4B0D400B56285E282F0B99CF
:10A74E0027B627D627E7276F0CEC0CF50B96340DA2
:10A75E000D760C950C3B0DAD0C610D0E0CFC0DCC5D
:10A76E000FAC0EE43AD039F43D943EC13EAD3AEA18
:10A77E003E613B3C3F243B4B3BB03BD310E111C011
:10A78E00113D30CC34F72FAD3C5D3D10081608A1BD
:10A79E000C930D6A0C3A0BFB3B2840F81132C0C3E8
:10A7AE00750B2E891687012E8C1E8901CF2E833EA6
:10A7BE008701FF7503E924FE2EFF2E87012E891EC9
:10A7CE008B01C3E81FFF2EFF368B018F4402C32E71
:10A7DE00891EB8032E8C06BA03CB06532EC41EB8A0
:10A7EE000326814F0300015B07CBFA2E8C166703FD
:10A7FE002E892665030E17BC100536FE062301FBB7
:10A80E00FC061E161FE8500B1F7206E80814740192
:10A81E00F907FA36FE0E2301368B266503368E16A1
:10A82E006703FBCBFA2E8C1667032E892665030E63
:10A83E0017BC100536FE062301FBFC061E161FE88C
:10A84E00160B1F72CCE8F213EBC4E898FEFF7416D9
:10A85E009DF8EB0A32E4E88CFEFF74169DF989042C
:10A86E009C8F4416C33C8072103CA7770C2C801E24
:10A87E00530E1FBBCD08D75B1FCB809A45418E412F
:10A88E008F804545454949498E8F9092924F994FF9
:10A89E00555559999A9B9C9D9E9F41494F55A5A5EB
:10A8AE00A6A700404D3B533C3E3D3D3F4B524141E0
:10A8BE001A360A3793379F367F378C36113744371F
:10A8CE0017373A371C371C379B37E8A42CB10D5776
:10A8DE00BFF608F2AE5FD1E18BE9FFA60309B20025
:10A8EE00161F8AC2E8A412B0FF7215E8E918268B6B
:10A8FE00560D4A268A4604FEC0268B4E0283C51686
:10A90E00E8E2FD894C04895406896C028C440EC31E
:10A91E0032C036C606CE0300368A26CE0336A3CC08
:10A92E0003E8C1FD8E5C1433C08EC0BE0A00BF8822
:10A93E0000A5A5A5A5A5A5E90824E81F0BB20072E0
:10A94E00520AE47805A12101FEC226894510A170A4
:10A95E000326894512A1720326894514A197032661
:10A96E008945168BF3C43EDF00B8FF003A0661033B
:10A97E007509ABFEC0ABABA04503AAA06F03FEC02A
:10A98E00AA0AD274048E1EB503B91000F3A532C004
:10A99E00C31E07B8FFFF26894510C3E831258BFA81
:10A9AE0072EF8B4510C46D120BC078E58B5D16529D
:10A9BE001E5036892E7003368C067203E8190C5819
:10A9CE00C706AB03FFFFE8510BE8F00A075FE96C1F
:10A9DE00FFE8880AB0FF72C283C721268B4DED0BAC
:10A9EE00C97503B9800033D246468E1EB5038B441B
:10A9FE0002F7F150ADF7F10BD25A740440750142D3
:10AA0E00AB8BC2AAB00083F9407303268825C3E836
:10AA1E00661A894521885523837D0E4073038875F8
:10AA2E0024C3161FB0FFE8A61CC7062B01FFFFC7E5
:10AA3E00062901FFFFE81F1BC6450701807D04FFA5
:10AA4E007408C74504FF00E8361BE8231B75E9C3ED
:10AA5E008AC23CFF753A36C43E650333DBE81811F3
:10AA6E0072EDB401E85A07750BE8F32026804D16F7
:10AA7E004032C0C326806516BFE8E32033DBE8F71B
:10AA8E001072F0B401E8390774EF32E4E83207C30C
:10AA9E0053BB0100E8E110721BF644188074111EBE
:10AAAE0056C57419F64404105E1F7404CD29EB03C9
:10AABE00E80800F85BC3E8BF1072FA50EB03E89E9B
:10AACE0020B403E8FB0674F658B402E8F306F8C3A4
:10AADE002EAC3C2474F9E8D029EBF5C3E8D8225605
:10AAEE00E802FC8F4408C336C6068D01FF8EC22EC7
:10AAFE00F6068D01FF74072E8E1E8B01EB06E8E421
:10AB0E00FB8E5C1433F68BFEB98000F3A52EF60691
:10AB1E008D01FF74360E1F33DBB9140006E86F3259
:10AB2E0072140657E85432720326FE055F07268A12
:10AB3E00050706268A070743E2E2FF368B015B53C1
:10AB4E00268F0616008C068B018EDB2EC6068D0117
:10AB5E0000A1020033C98ED98EC2BE8800BF0A0082
:10AB6E00B90600F3A526A302002BC23DFF0F760304
:10AB7E00B8FF0FBB0C002BD8B104D3E08EDAA306BE
:10AB8E0000891E0800C7060000CD20C60605009AE3
:10AB9E00C7065000CD21C6065200CBC3000000FFF1
:10ABAE00020B161F8B1EF10B8B0EEF0BA1F30BE896
:10ABBE0033FB895C02894C048904C38AD81E075270
:10ABCE005F161F83FFFF74400ADB750B8B36A401E3
:10ABDE008B44FE8ADCEB1EE807007319B002E973A2
:10ABEE00FCBEA601AD3CFF7502F9C33ADC74FB3224
:10ABFE00E403F0EBEF8AC832ED57F3A45F268C4DD9
:10AC0E001433C08AC3E942FCE8D6FF7304B002EBEA
:10AC1E00CD8936A401EBEA36A0DB00C3240136A2AF
:10AC2E00DB00C30AC0750BE8BBFA36A028018844C6
:10AC3E0006C3FEC8750980E2013688162801C3B026
:10AC4E00FFC3E8A0FAC7440223018C5410C3E89452
:10AC5E00FAC74402F0008C5410C3161F8AC2E82AA9
:10AC6E000FB8FFFF7224E86E1533D2BB0200268B9D
:10AC7E004E0D4951E85E1475014243E2F75B268A98
:10AC8E004604FEC032E4268B4E02E858FA894C0484
:10AC9E00895C068954028904C3368B1EDF00368B0D
:10ACAE000EE100E83FFA895C02894C10C336891622
:10ACBE00DF00368C1EE100C3B200161F8AC2E8CA3E
:10ACCE000E720FE81115E81CFA896C028C440E32D4
:10ACDE00C0C3B0FFC336A02001C336A000013AD0D6
:10ACEE0073053688162001C3E8180026C41FE8F441
:10ACFE00F9895C028C4410C3E80800268917268C5B
:10AD0E005F02C333DB8EC38AD8D1E3D1E3C3161FF0
:10AD1E000AC075068A16E500EB1FFEC87505881673
:10AD2E00E500C3FEC875068A16E600EB0CFEC87574
:10AD3E00058816E600C3B0FFC3E8A9F9895406C317
:10AD4E008BFD83C702ADAB8BD0ACFEC8AAFEC03262
:10AD5E00E4A8017506FEC4D0E8EBF68AC4AA8AD828
:10AD6E00A5ACAA8AF8ADABB105D3EA4803C28BCA2B
:10AD7E0033D2F7F18BC84747A5AC26884616ADAA45
:10AD8E00F6E726034606AB03C12689460B262B465D
:10AD9E000DF7D88ACBD3E8402689460D26C7461C28
:10ADAE000000C3E9B000E9AB00E8162B72F58BF298
:10ADBE00368C16870336C70685034804B01036C78F
:10ADCE0006620300E5E83A08B00372D775D8C53EAF
:10ADDE00B3032BF756FF7508161FFF36970333C0C4
:10ADEE00A39703E8E4057251E82F07C43EB3032688
:10ADFE00C645050183C710B82E20AB8B169703E806
:10AE0E003706B82E2EAB5AE82F06C42E70035A32D0
:10AE1E00C0E819188B169703C53EB3035E03F78976
:10AE2E001433D2895402895404C6450501161F26CF
:10AE3E008A4600E89918E911FA5A5AC42E7003325C
:10AE4E00C0E8E917C53EB3035E03F783EE1AC604E6
:10AE5E00E5E8D5FFB005E9FBF9E8662A725A1E52FD
:10AE6E008BF2E83F08724F754DA197038BD826875A
:10AE7E005E1C0BC05E1F74BE8BFD83C71E8BD73648
:10AE8E00803E750300740246468BCE36803E7603B6
:10AE9E000074044641EB2B0BDB742933DB26803D1B
:10AEAE000074044743EBF6B02F363A06E500750200
:10AEBE00B05CAA43EB1D5858B003E997F94383FBE6
:10AECE0040C333DBAC0AC07503E989003C2E741D08
:10AEDE00E82D0083FB4072EC268A45FFE8BE207504
:10AEEE00014F32C0AA26C7461CFFFFEBCBAC0AC0EF
:10AEFE0074623C2E75CEE84600AC0AC07456EBC4A4
:10AF0E005751B90008B42EE84F00E8B1FF73133A59
:10AF1E00E074120AC07407AAE8A2FF7305464E59E0
:10AF2E0058C3595FC3AAE894FF73F7AC32E4B90073
:10AF3E0003E82500E887FF73E90AC074E1EBD84FF8
:10AF4E004B3BFA74DF50268A45FFE850205874D4E4
:10AF5E004F4BEBED4FAAE9F1F8AAFEC1E85EFF7385
:10AF6E00140AC074103ACD76024F4BACE82E207402
:10AF7E00043AC475E4C3E9A500E8462972F88BF2D9
:10AF8E00E8210772F175218B3E97030BFF7419268A
:10AF9E008B4E1C83F9FF7515E8F705E847F78B54C0
:10AFAE00068E5C0EEBD35858B005E9A7F83BF97541
:10AFBE0004B010EBF5C53EB3032BDF53FF75081637
:10AFCE001F1607BF3903B03FB90B00F3AA32C0AA50
:10AFDE00E88808E841058E1EB5038BF3AD3D2E20A3
:10AFEE0075C483C61EAD3D2E2E75BB161FC706211A
:10AFFE00010200E82105C606450316E88B0473A678
:10B00E00C42E70038B1E9703E82B155A32C0E81C12
:10B01E0016C53EB3035B03DFC607E5E90BFEB003BF
:10B02E00EB91BF000036A1EE00E820007301C306CD
:10B03E001F391E01007504893E0100803D5A74EED1
:10B04E00E80200EBE78CD803060300408EC0268092
:10B05E003D4D740826803D5A7402F9C3F8C3803DF5
:10B06E005A74FAE8DFFF72F526393E010075EE26B6
:10B07E008B0E030041010E0300268A0D880DEBDEB8
:10B08E0033C08BF836A3E70036A3E90036A3EB00F6
:10B09E005036A1EE00E8B4FF7212061F393E0100D1
:10B0AE007423803D5A740BE89BFF73EE58B007E98A
:10B0BE00A2F736833EE700007568E828F65B895CE8
:10B0CE0002B008EBEAE896FF72E28B0E03005A3BE1
:10B0DE00CA76028BD1523BD977C836833EE7000041
:10B0EE007505368C1EE70036833EE90000740E06A9
:10B0FE00368E06E90026390E0300077605368C1EBD
:10B10E00E900368C1EEB00EB99368E1EEB008B0E93
:10B11E0003002BCB8CDA744503D18EC24987D9EB51
:10B12E00279036803EED000177DF368E1EE70072E7
:10B13E0005368E1EE9008B0E03002BCB8CD88BD0E0
:10B14E00741B03C3408EC049891E030026890E035B
:10B15E0000B34D861D26881D26893E01008EDA36E7
:10B16E00A18B01A301008CD8405BE9DDF6BF000086
:10B17E008CC048E8D6FE7303E932FF8ED8E8DEFEB7
:10B18E0072F68B0E0300513BD976ABE92CFFBF0054
:10B19E00008CC048E8B5FE720726893E0100EBCA56
:10B1AE00B009E9AFF63C017206740CB001EBF33650
:10B1BE00A0ED0032E4EBE736881EED00EBF7E80079
:10B1CE00F5368C16570136C7065501330336C706BA
:10B1DE005901010036A33303F64418807503E98044
:10B1EE0000E8F1F41E1607161F33DB891E4A01888C
:10B1FE001E5401BB4701B916040AE47418B90E05B2
:10B20E00FECC7411B91608FECC7452B90D0AFECCE0
:10B21E00744BB90F07B486880E4701882E49018AF0
:10B22E00CC1FE8CC00368B3E4A01F7C70080740F66
:10B23E008AE1E8341A3C0174853680264B01FD16EE
:10B24E001F80FD057506A05401A233038A264B010B
:10B25E00F6D480E402E869F436A13303C3B487EB75
:10B26E00B60AE47426FECC7405FECC7411C3FF74CA
:10B27E0021FF7423E814008F44238F4421C3E82355
:10B28E0000E8FF07E89015E85000C3E81600E8BB99
:10B29E000651E88215590BC9E83F0036A0330375F5
:10B2AE00E9B01AC3368F063F01E829F436FF36DFC0
:10B2BE000036FF36E1001E161F8B0E5701890EE178
:10B2CE00008B0E5501890EDF008B0E59011FC744EE
:10B2DE000E01008BD6E81C10EB12368F063F01369E
:10B2EE008F06E100368F06DF00E8D5F336FF263FE6
:10B2FE0001C574198B440636A34301368C1E4501D5
:10B30E0036FF1E43018B440836A3430136FF1E430E
:10B31E0001C3565751F6064503087520BE0701F7BF
:10B32E0044040080740F5683C60ABF3903B9040063
:10B33E00F3A75E740EC53483FEFF75E3F9161F592D
:10B34E005F5EC3368C1E83038A7C0480CFC080E789
:10B35E00DF3689368103EBE5C42EF000243F3A0632
:10B36E000001F5720C263A4600740626C46E18EBE0
:10B37E00F4892E70038C067203C3575150B104B07A
:10B38E00161607BF2D01AA58AA508AC1AA33C0AB00
:10B39E0083C7085886E0AA86C4508BC3AB8CD8AB43
:10B3AE005958AB92AB9187D15FBB2D01C35751500A
:10B3BE00B10836020EDB00EBC6A1A9033DFFFF75F7
:10B3CE0076833E9703007502F9C38B1E97030BDB42
:10B3DE007403E87511B90100E8BD1072EC8B169775
:10B3EE00030BD2750BE8F001C7062101FFFFEB132B
:10B3FE00813E9303F80F7204891E93038BD332DBC5
:10B40E00E86410268A4E04FEC132ED51B0FFE81CEE
:10B41E0012268B4E0206C43EB3035783C71033C0A9
:10B42E00D1E9F3AB7301AA5FFEC026884505075923
:10B43E0042E2D8A1210140F8C3B90400B82020F39C
:10B44E00ABAA8B368503B010AA83C70A8B4416AB02
:10B45E008B4414AB8BC2AB33C0ABABC3E8751A7263
:10B46E00FA521EE80800075FC3E8681A72FA161F40
:10B47E00E89FFE7204E8341AC3E8DF03803E4503FA
:10B48E00087503E82A01E88E001E8E1EB5038A2772
:10B49E000AE47433363A266303742CF6470B0874A9
:10B4AE000536FE06B7038BF31607BF3903B90B003B
:10B4BE00F3A6742F26807DFF3F74F51FC42E7003F4
:10B4CE00E8820073C4EB4D1F8B0E21013B0EA903C6
:10B4DE007304890EA9033A26630374E0890EAB0345
:10B4EE00F9EB318A2C1F8A264503F6C5087409F636
:10B4FE00C40874C832E4EB1480FC0874BF83C60F12
:10B50E00E86C037407F6066203FF74B0C42E700372
:10B51E00268A66001607C3A12101A32101B104D317
:10B52E00E033D2D1E0D1D2268B5E0280E3E0F7F396
:10B53E008BDA53E869065B8B16B30383C21003DA0A
:10B54E0026035602C3A121013B06AB03742540839B
:10B55E00C3203BDA721F8A1E6B03FEC33A1E7403AE
:10B56E0072188B1EAD0381FBF80F730783FB0272FB
:10B57E0002EBA7F9C3A32101F8C3881E6B03A32115
:10B58E00011EC53EB3038B5508421FE84A0633DB46
:10B59E00EBA5268B5E1C0BDB741681FBF80F723845
:10B5AE00061F8D761EE8F201732626C7461C000084
:10B5BE00161F33C0A39703A26B0348A39303268BD6
:10B5CE00460B268B56102BC2A2740389169503C305
:10B5DE00A197032689461CC30BDB74D4161F891E44
:10B5EE009703268A4604FEC0A27403E8E70A893E42
:10B5FE0093038BD332DB881E6B03E86A0E89169594
:10B60E0003C350E89E008AD15936880E45038BC875
:10B61E00730F75040AD27504B004F9C332C0F9EB86
:10B62E003A742CB00336F60645031875180AED78F1
:10B63E001851368E1EB5038A6F0BF6C5017503E8D9
:10B64E002D02597404B005EBD132C0B003EB0CB02F
:10B65E000136F60645031074C1F8C350161F9C80C0
:10B66E003E39032E75059DB001EB109D06C43E8537
:10B67E00031E57068BC1E8E4131F070AC058740453
:10B68E00B002F9C306C43E8503471E568E1EB5038F
:10B69E008BF3B90B00F3A45E1F073C0177040AC0BD
:10B6AE00F8C3F9C333C036A3750336C60645031671
:10B6BE00ACE8E91874438AE0AC3C3A74654E4E1E11
:10B6CE0056160736803EE600007405E8A40073485F
:10B6DE00E8180036A0D5005036C606D50000E8B1F1
:10B6EE00FE5836A2D5005E1FE9B40032C0E89B04B6
:10B6FE0072B1161FE8E00AF8C31E56E8EDFF5E1F92
:10B70E0036FE067603803C0074401E5606E8400066
:10B71E000773055E1FE9820058581607E88D17FE5D
:10B72E00C0C336FE0675038AC40C202C601E56500C
:10B73E001607E83D005873E0E8B2FF5E1F72E2ACF8
:10B74E00E85A1874BB4E1E56EB89E863FE32C0C32E
:10B75E001607BF040033C9368A0E0300F3A6740C15
:10B76E004EE8E417263A45FF74F2F9C3ACE82D18FB
:10B77E0075F8BF3903B90900E8CD173C2E740EE8F1
:10B78E001B1874070AC07405AAE2EDF9C383C1023F
:10B79E00B020F3AA161FE879FBC31EE812FE1F069F
:10B7AE0056E8CA168AC880C9805F073BF77503E959
:10B7BE008A001E568A04161F803EE6000074170685
:10B7CE001607E84DFB07720E0AC075745E5E16070B
:10B7DE00E8D916FEC0C3570651E89DFC59075F72A3
:10B7EE0070C53EB303F6470B10745536803ED50038
:10B7FE000074118BD78CD85F1F803D0074501E577C
:10B80E008BFA8ED88B142BDF2BF753505651FF75B6
:10B81E00088BDAE8C2FD5A32C0E8110E595E585B49
:10B82E008B3EB30303F703DF5F1F8A050AC0741E46
:10B83E00478BF7E867177503E964FF4E32C9F9C302
:10B84E005F1F8A050AC074048BF7F9C3FEC0161F6A
:10B85E00C35E1F8A048BF70AC0F9C3C42E7003336C
:10B86E00C0A32101A2B70348A3A903A3AB03C350EE
:10B87E0036A04503F6D022C5241658C30657565394
:10B88E00BB0100E8F52483C7038A1EC103C536C277
:10B89E000326897519268C5D1B26885D18161F33A5
:10B8AE00DBE8D72483C7038A1EC003C536BC032634
:10B8BE00897519268C5D1B26885D18161FC60626EF
:10B8CE000100C6062701015B5E5F07C3065756538C
:10B8DE00C606260101C60627010033DBE89C248339
:10B8EE00C703268A5D18881EC00326C575193689BA
:10B8FE0036BC03368C1EBE0336C53685038A5C18ED
:10B90E00C5741926885D1826897519268C5D1B1637
:10B91E001FBB0100E8642483C703268A5D18881EB6
:10B92E00C10326C57519368936C203368C1EC4036B
:10B93E0036C53685038A5C18C5741926885D1826A7
:10B94E00897519268C5D1B161FE97BFFE81A030A01
:10B95E00DB7804E82F04C3C43EDF00F6C34074074F
:10B96E00F6C304743932C0E9AA00061F8BDF33D246
:10B97E0033C0E805FA36C5368503E874F98BD7B4BB
:10B98E0086368B3E3001F7C700807409E8DA128BD9
:10B99E00FA3C0174D78BFA36033E3F01EB76F6C3C1
:10B9AE002075C7F6C3017403E99F008CC08ED88B37
:10B9BE00DF33D28BC251B90100E8BEF95936C53614
:10B9CE008503C57419E81F11E829F957B486368B1B
:10B9DE003E3001F7C700807413E88D125F36C7063C
:10B9EE003F0101003C0174DD32C0EB125F36833E35
:10B9FE003F0101751F1E368E1E3D018A051F36FF43
:10BA0E00063B0136C70630010000473C1A74043C61
:10BA1E000DE0B24FEB1FACAA3C0D7503C6040A3CF9
:10BA2E000AE0F3750733F6E87F1A0C01161FE84B90
:10BA3E00FE8936DC00161F893E89037509C43E85D2
:10BA4E000326806518BFE83A04C3E87FFE8B36DC18
:10BA5E00000BF675C1803EAA02807406C706AA02C4
:10BA6E0080FF510657BAAA02E8211B5F0759BEACE8
:10BA7E0002803C1A75A0B01AAA4FB00AE82A1A33EF
:10BA8E00F6EBA9E8E3010ADB7865E8F71C268945A1
:10BA9E001426895516E85804C31E161FE82DFE1FDE
:10BAAE008BF351AC3C1A7405E8FE19E2F6582BC123
:10BABE001FE8C8FDEB2933C0E8F2F836C53685031A
:10BACE00E82EF88BD7B487368B3E3001F7C700804F
:10BADE007409E894118BDA3C0174DB1FA13F01C499
:10BAEE003E850333D226F7750E8BC8E8F103C3806B
:10BAFE00CB4033C0E3E91E8AC3C51EDF008BFB3388
:10BB0E00D2A82075B1A8027590A80475678BC28063
:10BB1E003F1A745A51B90100E892F85936C5368564
:10BB2E0003C57419E8C00FE8CAF757B487368B3EC1
:10BB3E003001F7C700807411E82E115F36C7063F3B
:10BB4E000101003C0174DDEB095F36833E3F0100CD
:10BB5E00741C4236FF063B01471E368E1E3D018089
:10BB6E003D1A1F740936C70630010000E2B68BC2BB
:10BB7E001FE96BFF8BD1EBF6161F0657E8FC2172FF
:10BB8E00078BF783C603061F5F07C336380600010F
:10BB9E0072F8FEC8790436A0200136A26F03C38A5C
:10BBAE000E7403F6F188266B038AC832ED8B169558
:10BBBE000302D480D6008B1E9303891EAD03E318B7
:10BBCE00E8120587DF81FBF80F7302E2F3891EADE1
:10BBDE00038BD78ADCE88F0832C0B40FE84E0AC355
:10BBEE008BF9268A4E08268A460F32E48AEC525189
:10BBFE00508BCFE820005859741A03D0E2F15A8BBB
:10BC0E00CFE81200749836C6066E0300E870103C3A
:10BC1E000174EEC35AC351268A6616268A4601530C
:10BC2E0006E856F7EB2290E8100074E936C6066E69
:10BC3E000301E84A103C0174EEC351268A661626AB
:10BC4E008A46015306E865F78CD91F1E3EC576124B
:10BC5E00E8A1F68ED9075B368B0E3F015F2BCFF72F
:10BC6E00D936A13001A90080C3508A05FEC836A27C
:10BC7E006F038A45188B750E0BF67506BE8000890C
:10BC8E00750E368C1E8703161F893E85030AC079F2
:10BC9E000232C0E8C2F658730933C9C6066C0304F3
:10BCAE005BC383FE40720232F6890E8F03A38B03B1
:10BCBE0089168D038B1EDF00891E8903C6066C0351
:10BCCE0000C6066D03008BDAF7E6A39F03528BC303
:10BCDE00F7E65B03C383D200755EA3A1038BD0A1ED
:10BCEE009F03268B5E023BD3734EF7F3A399038912
:10BCFE00169D038BD026224604A26B038BC1268A87
:10BD0E004E05D3EA89169303F7E68BC80306DF00C8
:10BD1E0083D200741AA1DF00F7D875014833D2F729
:10BD2E00F6A38F03F7E6C6066C03028BC8E310C4B6
:10BD3E003E8503268A5D18C3C6066C030133C9C44B
:10BD4E003E85035BC3A19D038BD90BC0740E262BBE
:10BD5E004602F7D82BD8730403C333DBA3A3038B9C
:10BD6E00C333D226F77602A3A7038916A5030B16B3
:10BD7E00A30375D03D010075CB268B4602A3A50308
:10BD8E008916A703C3268B4510268B5D122B069FA3
:10BD9E00031B1EA103721E750A0BC074183BC173E0
:10BDAE00028BC8C42E7003E89BFF8B0E9303E854DE
:10BDBE00050BC97409E9B101E9B000E9C50089169E
:10BDCE009103891E9303833EA303007403E89B052E
:10BDDE00833EA7030074E1E8050672DFC6066D0315
:10BDEE00018A166B038B0EA7038B1E9303E81F06A7
:10BDFE005750538E1EE1005251E805FE5B5A03DA8E
:10BE0E00268A4600E85007C64507013A45047541A3
:10BE1E00395508723C395D087337807D0500742EE4
:10BE2E00585057522B5508F7DA8BF78BF88BC226E2
:10BE3E008B4E02F7E103F883C610D1E906368E0663
:10BE4E00E100F3A57301A4075A5F268A4600E82F86
:10BE5E0007E81C0775B1161F59595BE30E81FBF8F5
:10BE6E000F7320B200FF069103EB82A1A5030BC056
:10BE7E007411A3A303E867057209C7069D030000AA
:10BE8E00E8E804C4368503A189038BF82B06DF008E
:10BE9E0033D2268B4C0EF7F13B068F037422C60667
:10BEAE006C03010BD27419C6066C03032BCA068EE3
:10BEBE0006E1009333C0D1E97301AAF3AB930740B7
:10BECE008BC88BFE26F64518FF7814A193032681A6
:10BEDE00651D00F02609451DA191032689451BA16C
:10BEEE008B038B168D03E3074903C183D20041C335
:10BEFE0080E33F26885D18C42E7003E847FEA19F9D
:10BF0E00038B16A103E37803C183D20026F77602D2
:10BF1E008BD80BD2750148268A4E05D3E8505206AF
:10BF2E00C43E8503268B4510268B55120726F776C1
:10BF3E00028BC80BD2740140A39B0333C0A3AF0383
:10BF4E00A3B103582BD9724774388BCA9326F76660
:10BF5E00022BC183DA0003C383D200EB2B8BC8E81C
:10BF6E00C703E318E83105731333C9C6066C030122
:10BF7E00A18B038B168D03C43E8503C3EB4590E95D
:10BF8E00F3002BC2760933D2A3AF038916B103583F
:10BF9E008B0E9303E86E03891E9303891691032B70
:10BFAE00C27420E3B8518BC8E8ED045872BB8BC83D
:10BFBE008B16910342497403E86E03891E9303891D
:10BFCE00169103833EA3030074078B1E9303E8CCE4
:10BFDE0003A1A7030BC0746501069903E80004C60C
:10BFEE00066D03018A166B038B1E93038B0EA7033C
:10BFFE00E81C0457505253268A46008BD903DAE8C0
:10C00E005505C64507013A45047512395508720D96
:10C01E00395D087308C74504FF00E86305E850055D
:10C02E0075E05B5A368E1EE100E8FBFB595B161F6E
:10C03E00E30BB200FF069103EBB6E92CFFA1A503BB
:10C04E000BC0740FA3A303E89503C7069D0300005E
:10C05E00E84A03C43E8503A1AF038B0EB1030BC0A8
:10C06E0075040BC974082601451026114D128B0E4E
:10C07E008F03E94FFE8BC80BCA743B2D010083DA88
:10C08E000026F77602268A4E05D3E88BC8E875029D
:10C09E00E31CE8030472A3C43E8503A19F03268913
:10C0AE004510A1A1032689451233C9E931FEBAFF15
:10C0BE000FE88404EBE133DB06C43E850326895D7D
:10C0CE001B26875D192681651D00F0070BDB74C7E3
:10C0DE00E86304EBC2263B5E0D7715E882008B3DCC
:10C0EE00730751B104D3EF59F981E7FF0F161FC340
:10C0FE0050B480BFFF0FE8C70B58C3E862008B3502
:10C10E00730C51B104D3E25981E60F00EB0481E6C2
:10C11E0000F00BF2893536C536B303C64405013639
:10C12E00803E770300161F74D1505351A179038EB0
:10C13E001EB50383C6108824161F508B167B03BEB4
:10C14E00010032C0E8E804C53EB303C645050183CD
:10C15E00C7104F26037E02588805161F595B58C319
:10C16E00C606770300505351528BC3D1E803C33335
:10C17E00D2268B4E02F7F126034606495052518BBA
:10C18E00D032C0BE0100E8A604C536B3038D7C10C4
:10C19E0059585A03F83BC175298A05161FFE0677B2
:10C1AE0003A2790389167B034232C0BE0100E87EEA
:10C1BE0004C536B3038D7C108A05161FA27A03BF01
:10C1CE0079035A595B8BC3D1E858C381E7FF00B49A
:10C1DE0002A06F03E8ED0AA06F03E87BF1B00F2613
:10C1EE008A6601A32D01C6062F0101C70630010084
:10C1FE0000268A4616A23A01061EBB2D0126C576DA
:10C20E001207E8EFF0161F078B3E3001F7C70080CC
:10C21E0075B932E426866617A06F030A263B0178AD
:10C22E00157401C3FEC4C53E03013B450474F4C539
:10C23E003D83FFFF75F4E81E03C64507013A45042A
:10C24E007508C74504FF00E83603E8230375EA26A0
:10C25E00C57E12F745040020750E161FBB0200E8BE
:10C26E0073FEC53EB303EB0C065536C53E0301E81F
:10C27E0098045D0783C710368C1E3D01161F893E3C
:10C28E003B01B016268A6601A32D01C6062F0102B8
:10C29E00C70630010000268A4616A23A01061E265F
:10C2AE00FF761426FF7612BB2D015E1F07E844F0C1
:10C2BE0007161F8B3E3001F7C700807531268A4660
:10C2CE0016C5363F013A440A7413E873EA36C53E82
:10C2DE003B01268A4608268A660F8945FA161FB83C
:10C2EE00FFFF2685461C7501C32689461CC3E9DA65
:10C2FE00FEB901008BFA803DFF750383C7078B459E
:10C30E00218B5523C306C43E8503268B5D1D81E319
:10C31E00FF0F268B551B0BDB741E2BCA730803CA2B
:10C32E0033D2268B5D1907E30EE8A9FD81FFF80FC6
:10C33E00730587DF42E2F2C307414AC38B169303AC
:10C34E008A1E6B03E82001E8E302C6066D03018B2B
:10C35E003689038BFE8B0EA30303F9893E8903C432
:10C36E003EB30383C710033E9D03C306B80002E825
:10C37E00CAFF8CC38E06E1008EDB87FED1E9730106
:10C38E00A4F3A50736C53EB3038D5D102BF3E8FD70
:10C39E0001263B76027203E84F02161FC3A19903D2
:10C3AE0040A399033B069B03B001770232C006E817
:10C3BE008AFF8E1EE100D1E97301A4F3A50736C5ED
:10C3CE001EB303C64705018D77102BFE8BF78BFB33
:10C3DE00E8BB01263B76027203E80D02161FC3F678
:10C3EE00066D03FF7425A06B03FEC0263A46047645
:10C3FE00178B1E930381FBF80F7312E8D7FC893E4F
:10C40E009303FF069103B000A26B03F8C3F9C35266
:10C41E0053268A4604FEC08AE02AC28BD1B9000098
:10C42E00E8B2FC02C880D5003BCA732D8AC4433BD8
:10C43E00FB74ED4B891E93032BD1528BC126F766ED
:10C44E00028B36890303C6A38903585A2BDA011EC1
:10C45E0091035BE811008BDEC32BCA2AE1FECC8868
:10C46E00266B038BCAEBCD51268A4E054A4AD3E280
:10C47E000AD32603560B59C38BFA803DFF750383EF
:10C48E00C707B901008A45208B550CD0E0D1EAD000
:10C49E00D88AE28AD6B600C35333DBE837FC893E2E
:10C4AE007F035B5251538BC38BD343263B5E0D7E72
:10C4BE002B3D01007F2B5BBAFF0FE87B00582BC191
:10C4CE005AE862004203C2268A5604B60042F7E2D8
:10C4DE008BC82B0E8B03770233C9F9C3E8F6FB74B6
:10C4EE000C487EC693E8EDFB740393EBBD87DA8BA5
:10C4FE00C2E807FC8BD8E2B0BAFF0FE8FDFB5B5930
:10C50E005AE8D1FBE81F0087DF0BFF75CE06C43E4D
:10C51E00850381E3FF0F26895D192681651D00F0D5
:10C52E0026095D1D07C353525733DB8B167F03E875
:10C53E00C9FB5F5A5BC333D2E89AFB74F88BC7E82A
:10C54E00B9FB3DF80F8BD872EDC3E888FB81FFF87D
:10C55E000F73F68BDFEBF336C53E03015033C08805
:10C56E004507C53D83FFFF75F636C53E030158C32B
:10C57E0083FFFF74FA807D070175F4C53DEBF1C3AF
:10C58E0006C435E80800061F8BFE07C3EB57E844C8
:10C59E00E1C40D83F9FF744D8CC51E0736C53603F5
:10C5AE0001E87A00750C36890E030136892E0501D5
:10C5BE00EB141E56C534E8650074045858EBF35E50
:10C5CE001F890C896C021E56C53483FEFF740458F5
:10C5DE0058EBF35E1F893C8C440226C705FFFF26ED
:10C5EE00C74502FFFFE8D9E0C3E8E9E01E0736C5FC
:10C5FE0036030136893E0301368C06050126893540
:10C60E00268C5D021E56C534E8130074045858EB90
:10C61E00F35E1FC704FFFFC74402FFFFEBC73BF7E4
:10C62E0075C651528CD98CC23BCA5A59C333F6A324
:10C63E007D03268A4600C53E290183FFFF740C3B0D
:10C64E00550875073A45047502EB6F36C53E030172
:10C65E003B550875073A45047502EB49C53D83FF06
:10C66E00FF75ED36C53E030156525506E89B000791
:10C67E005D5A5E36F6067D03FF75188D5D10B901A5
:10C68E00005657520BF67405E855F5EB03E871F5B5
:10C69E005A5F5E895508896D0C8C450E32E4268AE8
:10C6AE004600894504B801000BF67408268A460830
:10C6BE00268A660F89450AE8D4FE368C1EB50336E7
:10C6CE008C1E2B01161F893EB303893E2901C3C55B
:10C6DE003E0301B4FF38650474263AE074053A450A
:10C6EE0004751D807D0500741750FF7504E81A004F
:10C6FE005832E4363A0625017502B0FF89450458D2
:10C70E00C53D83FFFF75CE161FC3B8FF00874504D6
:10C71E003CFF74F50AE474F1363A06250174EAC456
:10C72E006D0C8D5D108B55088B4D0A8AC532ED8AC6
:10C73E00E5575150B901005352E8EBF45A5B585982
:10C74E0003D0E2EE5FC3161FE85E10A11B018B1E25
:10C75E001901E890DF895C0605BC0789440436A000
:10C76E001F01C3B0FF81E9BC07721783F9777712F7
:10C77E000AF6740E0AD2740A80FE0C7705161FE8AC
:10C78E00B210C3161FE82110E85ADF895406894CEF
:10C79E000432C0C3B0FF80FD1873F880F93C73F308
:10C7AE0080FE3C73EE80FA6473E95152161FBB2D66
:10C7BE0003B9060033D28BC253E8BEEB1EC536F862
:10C7CE0000E830EB1F5BE8E4EB8F0631038F062F9A
:10C7DE0003C536F800E81CEB32C0C3E89AFCE86BE0
:10C7EE00F1EB06E892FCE89AF2E34405010083D2ED
:10C7FE0000EB3CE8FBFAE853F1EB24E8F3FAE882AD
:10C80E00F2EB1CE8EEFAE843F1EB06E8E6FAE87222
:10C81E00F2E8D1DE894C04E30605010083D200263E
:10C82E00894521268855230AF67404268875248B9B
:10C83E00C8247F2688452080E180D1E1D1D28AC5E7
:10C84E008AE22689450C36A06C03C3E88606B0FF43
:10C85E0036A2640372F436A04503241F3C1F7512E2
:10C86E00B90B00B03FBF3903F3AE750636C606638B
:10C87E000300E8F9EBB0FF72D10AE478CDC42E7054
:10C88E00038A2663031EC53EB30336F6064503012F
:10C89E007509F6470B0174031FEB1C36C6066403BD
:10C8AE0000C645050188278B1C1F0BDB7409263B30
:10C8BE005E0D7703E87FFCE85DECE8FFEB73BEE806
:10C8CE005A01A06403C3E98900E8080672F883C61A
:10C8DE0005BF4603E8570672EDE892EB72E80AE4EC
:10C8EE0078E4BE3903BF5303B90D00F3A4BF390377
:10C8FE00BE4603B90B00AC3C3F75081E8E1EB50339
:10C90E008A071FAA43E2EF47C60516E804EA733FFB
:10C91E0033C0FF362101E860EB587333C42E700329
:10C92E00E8F7EB8BFB8E06B503BE3903B90B00F3AC
:10C93E00A48B3EB30326C64505011607BE5303BF9F
:10C94E003903B90D00F3A4E872EB73A1E9CD00E849
:10C95E00CA00B0FFC3E804EB72F8565032C00AE4C6
:10C96E007808A06F038E1EB50340AA33C083C70B91
:10C97E00ABB080ABAD8BD0A5A58B44F8AB8B44F69A
:10C98E00AB585E8AC40C40AA78278BC2AB5033C01A
:10C99E00AB58AA8AC4368A26970351B104D2E40A48
:10C9AE00C4AA36A19703B104D3E0598AC4AA33C0EE
:10C9BE00C3C5068103AB268C1DEBF38BFA803DFFBE
:10C9CE00750383C707F64518C0755CE80105725AF2
:10C9DE00521E8BF28B5C1EB104D3EB53161FE8F67E
:10C9EE00F75BE8F3EBE891EA075F723EC51EB3030F
:10C9FE00804CF120268B4D19890C268B55108954AD
:10CA0E0002268B5512895404268B55148954FE2602
:10CA1E008B55168954FCC6470501161FC42E70038C
:10CA2E00268A4600E8A8FC32C0C3B0FFC3E8A404BF
:10CA3E007229BF3903B90B00B03FF2AE741D36C672
:10CA4E00066203FF521EE825EAC42E70037316E831
:10CA5E0067E97205E8C3EAEB391F5AEBCD5A07595D
:10CA6E00525106EBE475F20AE478761EC53EB30326
:10CA7E008B0C8B75081FE31A263B4E0D77142BDF9C
:10CA8E0053568BD9E8AFFA5A32C0E8A0FB5B031EAF
:10CA9E00B303F6064503087407803EB7030075B965
:10CAAE008E06B5038BFBBE3903B90500A4F3A5A012
:10CABE004503AAB10533C0F3ABE8C80C92AB92ABF9
:10CACE0033C057ABABAB8B36B30326C6440501C49C
:10CADE002E7003268A46005053E8F3FB5B585E8A9D
:10CAEE00E0F8075FE971FE36803E2301017401C351
:10CAFE005106531E560E070E1F33C9C6065F01059B
:10CB0E00C6065D010E890E6001BB5D01C536FC00D7
:10CB1E00E8E1E736F70660010002752E36A06A01DD
:10CB2E003C03752836C6065F010436C6065D01163F
:10CB3E0036880E6A0136890E60014136890E6F0104
:10CB4E00E8B1E75E1F5B0759EB7232C05E1F5B07F1
:10CB5E0059C33C10744C3C0E74483C037444C39C43
:10CB6E0036803E270100740A36803E24010075028D
:10CB7E00CD289DC3E870FF5333DBE8FBEF5B72F308
:10CB8E00B401E83CE674D83C1375C732E4E831E6EC
:10CB9E00EB0936F616DA00C3E8C4FFB401E821E665
:10CBAE0074F65333DBE8D0EF5B72C832E4E811E67B
:10CBBE003C1074DE3C0E74DA3C0375DBB003E864A3
:10CBCE0009E8660A161F803E2601007403E8ACECE5
:10CBDE00FA8B2665038E166703E8E5DA2EC6062362
:10CBEE0001002EC6062401002E8926CA03CD232E4F
:10CBFE00A367039C582E3B26CA0375072EA1670315
:10CC0E00E9CBD92E832ECA03022E3B26CA03740B00
:10CC1E00B8004C2EC606D600FFEBE5509D2E8F06B3
:10CC2E00670373D8EBEABE9001E80200EBE20E0751
:10CC3E000E1FC6065F0108C6065D0116C706600117
:10CC4E0000008A1EA30132FF891E6F01BB5D0189A0
:10CC5E00366B01C536FC00E89AE62EC7066B01332B
:10CC6E00032EC7066F010100C3368C0637033689C3
:10CC7E002E35035681E7FF008CDDE857005EC39723
:10CC8E0081E7FF0083FF00750A50268A460036A210
:10CC9E002501582BC103D05226F766025A03D8320B
:10CCAE00E4263B56067212FEC4263B5610720AFE4E
:10CCBE00C4263B560B7202FEC4D0E4360A266E031F
:10CCCE00268A4600368C06370336892E350326C44F
:10CCDE0076128CC536803E240100754D3689266944
:10CCEE00031607FA36FE06240136FE0E2301368E93
:10CCFE00166703268B266503CD2426892665032613
:10CD0E008C1667038CC48ED4368B26690336FE06CA
:10CD1E00230136C606240100FB36C42E35033C0221
:10CD2E00740B36C6062501FFC332C0EBEC161F800E
:10CD3E003E2601007403E843EBC606CE03028E1EA8
:10CD4E008B011EB022E8A0DF368C06370336891E13
:10CD5E003503368B1E8B018EDBA11600593BC37437
:10CD6E00223BD9751E5036803ECE03037410E8B1B7
:10CD7E00E2B914008BD9514BE8261059E2F6368FE2
:10CD8E00068B010E1FB0FFE845F9FAC60623010017
:10CD9E00C6062501FF8E1E8B018E1630008B262EA9
:10CDAE0000E81DD9585858B802F2502EFF363703F6
:10CDBE002EFF363503FBCF36C606D7000032D2A87B
:10CDCE0002750426C6050047B90800A80493B020D2
:10CDDE00740403F933C9F3AAB103F6C30874040348
:10CDEE00F933C9F3AA91ABAB83EF10F6C301740903
:10CDFE00E87300E88001750446E86A00E8490176A8
:10CE0E0016803C3A7511462C407607363A060001DC
:10CE1E007602B2FFAA464F4E47B90800E8130080CB
:10CE2E003C2E750746B90300E80D008AC2C303F90C
:10CE3E004EC3E8130176F74EE80D017223750C36DA
:10CE4E00F606D700FF74193C207515E3EB493C2A12
:10CE5E007504B03FF3AAAA3C3F75DD80CA01EBD83A
:10CE6E00B020F3AA4EC3ACE82C0174FA4EC336C6FA
:10CE7E0006D700011607BF390357B020B90B00F3D0
:10CE8E00AA32C08AD0AA5F803C2E758DA4ACE80C65
:10CE9E000174150AC074113C2E750CAAACE8FD0085
:10CEAE0074060AC074024E4E4E32C0C3B82020BF64
:10CEBE004103ABAA33C0B90A00F3ABAAE8C508BF59
:10CECE004F0392AB92AB93BB39038BF732C0C3BF08
:10CEDE000100EB0233FF36C706620300E58BF2ACAE
:10CEEE0036A2610332E43CFF750A83C20783C6068D
:10CEFE008A64FFACE894EC72D51E52565057160752
:10CF0E00BF3903E828005F72170BFF7513161FE871
:10CF1E0000E4730CE8C0F236C606450316E872E666
:10CF2E005836882645035E5A1F1607BF3903803CC4
:10CF3E0020F9749AB90B00E80E00720B75053C20AF
:10CF4E00F9758BAAE2F1F8C3AC3C6172063C7A77B4
:10CF5E00022C2056368B36A40183C6120E2EFF14D9
:10CF6E005E3C2E74E23C2274DEE8310074D93C5BE8
:10CF7E0074D53C5D74D13C3A74CD3C3C74C93C7C58
:10CF8E0074C53C3E74C13C2B74BD3C3D74B93C3BF6
:10CF9E0074B53C2C74B13C0974AD3C20C33C2F7469
:10CFAE00FB3C5CC336A1CC0333D2368916CC03E9E5
:10CFBE0098D80000000000000000000000000000F3
:10CFCE000000000000000000000000000000000053
:10CFDE000000000000000000000000000000000043
:10CFEE00000000000000000000003C037607B001C6
:10CFFE00E961D8EBFB3C0274F536891E0530368CA0
:10D00E0006073036A2093036C6061E300032C0E89A
:10D01E006B0972DF36A30A308BD832C0E8CA0EF61F
:10D02E00C2807404B002EBCB36C7061C300000364B
:10D03E00F606093002755236C53605308B040BC024
:10D04E007510368E1E8B01A12C0036A318300BC026
:10D05E007437FC8EC033FFB9FF7F32C0F2AE740559
:10D06E00B00AE98E00AE75F4578BDF83C30FB1049F
:10D07E00D3EB06E80AE01F597303EB71908EC036AE
:10D08E00A3183033F633FFF3A4161FB91E008B1E00
:10D09E000A30BA1F30061EE87203E8A40DE87503C5
:10D0AE001F07724D3D1E007519833E2B300075050E
:10D0BE00C6061E30FFA11F303D4D5A74083D5A4D15
:10D0CE007403E97D01A12330B105D3E02B0627308F
:10D0DE00A30E30F6060930027429C43E0530268BA5
:10D0EE0005A33B30268B4502A30C30EB78B008EB42
:10D0FE0002B00B50368B1E0A30E81003E8A20C5813
:10D10E00E951D750BBFFFF1EE875DF1F5805100011
:10D11E0083FB1172D83BC377D4803E1E3000751846
:10D12E000306293072C73BC377C32B06293003068B
:10D13E002B3072043BC376028BC31E8BD8891E1A0A
:10D14E0030E83CDF1F72A6A31C30051000803E1E87
:10D15E003000740B03061A302B060E302D1000A370
:10D16E000C30A33B308B16273052B104D3E258B1AA
:10D17E000CD3E88BC88B1E0A301E32C0E8180D1F68
:10D18E008B1E0E3081FB00107203BBE00F291E0EAA
:10D19E003053B104D3E38BCB8B1E0A301E8E1E3B55
:10D1AE003033D251E86502E8970CE86802591F3B0C
:10D1BE00C85B750B011E3B30833E0E300075C18B74
:10D1CE000E0C30A12D3003C1A31630A12F30A314A5
:10D1DE0030C4063330A310308CC003C1A3123033D9
:10D1EE00C98B1637308B1E0A301E33C0E8A80C1FB1
:10D1FE007303E9FCFE8B16253052BA1F30B91C00A2
:10D20E00368B1E0A301EE80302E8350CE8060207CC
:10D21E005A72DFB90700BF1F30368B360C3083FAD7
:10D22E00007503E9B80026C51D8CD803C68ED88BB1
:10D23E000703C6890783C7044AE2E3061FEBBAE970
:10D24E00ABFE36F606093002740C36C5360530AD27
:10D25E0036A33B30EB30BBFFFFE824DE0BDB74DF85
:10D26E0036891E1A3053E817DE5B36A31C300510C4
:10D27E000036A33B3083EB1081FB001073088BC389
:10D28E00B104D3E0EB03B8FFFF50368B1E0A3033E8
:10D29E00C98BD133C0E8FF0B368B1E0A3059368E40
:10D2AE001E3B3033D251E86301E8950BE866015E10
:10D2BE003BC6748B36F606093002752236A13B301A
:10D2CE002D100036A3123036C706103000014E3630
:10D2DE008936143036A316308ED8C7040000368B2C
:10D2EE001E0A30E82601E8B80AE8290136F60609D2
:10D2FE0030027403E953D5368B161C30BE0100364E
:10D30E00A118300BC07405488ED8891436A11C3074
:10D31E00488ED889145236C6068D01FFE8C8D75AF2
:10D32E0036FF361830268F062C00368B361A300311
:10D33E00F2268936020036C53605301E56C57406ED
:10D34E00B90C0051BF5C008A1CF3A433C0ABAB59BF
:10D35E005E1F1E56C5740ABF6C008A3CF3A4ABABAD
:10D36E005E1FC57402B980008BF9F3A4FEC9363A6C
:10D37E003E000176048AF9EB0232FF363A1E0001B6
:10D38E0076048AD9EB0232DBE85AD3FF7414FF74A9
:10D39E0012FF7414FF7412268F060A00268F060CD5
:10D3AE000033C08ED88F0688008F068A0036C706D7
:10D3BE00DF008000368E1E8B01368C1EE10036F6A5
:10D3CE0006093001742636C536143036C43E053093
:10D3DE00268C5D104E4E891C2689750E36C506109C
:10D3EE0030268C5D1426894512E95ED436C536107A
:10D3FE0030FA36C606230100368E1616302E8B26D0
:10D40E001430FB1E568EC28EDA8BC3CB53BB00007C
:10D41E00E80D005BC3532E8B1E8B01E802005BC32D
:10D42E001E502EA118300BC07407488ED8891E01CD
:10D43E00002EA11C300BC07407488ED8891E010027
:10D44E00581FC35036C606CE0303368E068B018395
:10D45E00FA067303BA06008BDA5306E80FDD1F5B7C
:10D46E0072078CD803C3A3020058EB24B800318393
:10D47E00C20FB104D3EAE955D132E4368626D6007E
:10D48E000AE436C606CE0300740636C606CE03017F
:10D49E00E852D236FF368B018F4414E97AD4E8D0A5
:10D4AE000050E8040058C38AC23C2072433C7F748B
:10D4BE000536FE06D8001E5636FE06DE00368026DF
:10D4CE00DE0003750550E8ABF658E8C3D55E1F368F
:10D4DE00F606DA00FF74CF531E56BB0100E898E63D
:10D4EE00720CF64418807406BB0400EB7DC3EB7D12
:10D4FE003C0D74203C0874263C0975BA36A0D80041
:10D50E000CF8F6D8518AC8B500E307B020E899FFA9
:10D51E00E2F959C336C606D80000EB9AEB8B36FEFD
:10D52E000ED800EB913C2073F33C0974EF50B05EC3
:10D53E00E876FF580C40E870FFC3E837F6BB0300EF
:10D54E00E835E672F4EB03E815F6B401E872DC7424
:10D55E00F632E4E86BDCC353BB0300EB0453BB04AD
:10D56E00008AC250E80DF6581E56E849D55E1F5B7C
:10D57E00C31E56E8FEF574FB32E4E844DC5E1FC3BE
:10D58E008BF2AC3C2474F8E81FFFEBF68CD08EC007
:10D59E008BF232EDAD0AC074E68ADC8AFD3AC376B0
:10D5AE000580380D74028ADD8AD04A36A0D800363E
:10D5BE00A2D90056BF2A0236882E78038AFD8AF534
:10D5CE00E8AEFF3C0A7503E8A7FF3C0674F9363A4D
:10D5DE0006F50874383C7F742B3C0874273C0D7498
:10D5EE002F3C0A744F3C1B74503AF27319AAFEC6B4
:10D5FE00E832FF36803E78030075CC3AFB73C8469E
:10D60E00FEC7EBC3EB46B007E89EFEEBBAE9BAD213
:10D61E00AAE895FE5F8875FFFEC68CC58CDB8EC3AF
:10D62E008EDDBE2A028ACEF3A4C3B00DE87AFEB018
:10D63E000AE975FEE8F3FFEB8EB05CE86BFE5EE880
:10D64E00E8FF36A0D900E8BBFEE95FFF0AF67411C9
:10D65E00E85200268A053C2073073C097415E847FA
:10D66E000036803E78030075070AFF7403FECF4E26
:10D67E00E954FF574FFD8ACEB02053B307E30EAEE9
:10D68E00760926807D01097409FECBE2F2362A1E48
:10D69E00D9002ADE02CB80E107FC5B5F74C3E8078A
:10D6AE0000E2FBEBBCFECE4FB008E8FCFDB020E87C
:10D6BE00F7FDB008E9F2FD36A0F508E92BFF8ACB9D
:10D6CE002ACFEB07E83400EB02B10136C606780329
:10D6DE00003AF2740F3AFB740BACAAE847FEFEC791
:10D6EE00FEC6E2E7E9E0FE3AFB74F9FEC746E9D66C
:10D6FE00FEE8070003F102F9E9CCFEE873FE363AC4
:10D70E0006F5087506E869FEEB1E908ACB2ACF74E3
:10D71E0017497414061E07578BFE47F2AE5F077546
:10D72E0007F6D102CB2ACFC35DE99BFEB040E87865
:10D73E00FD5F57061EE8E2FE1F075E8ADEE9FFFE6A
:10D74E0036F6167803E97FFEB01AE99CFEE824F45B
:10D75E00B00074D30CFFC3505233DBE81AE47205E9
:10D76E00B404E85CDA5A588AE03C0174133C06743F
:10D77E000F3C07740B3C0874073C0A7403B000C3DB
:10D78E00FAE9ADCE5106E8200007D0E1D0E1D1E1B3
:10D79E00D1E1D1E1D0EE0ACE8BD1A11A01B104D2E2
:10D7AE00E0D1E0590A061901C35653BB2D03B90641
:10D7BE000033D28BC2E8C2DB1EC536F800E834DB7C
:10D7CE001F5B5EA12D038B0E2F038B1631033B06C1
:10D7DE001D0174423D36AB733DA31D0156515233AC
:10D7EE00D2B9B505F7F1D1E0D1E0D1E08BC8BE7367
:10D7FE0001E82300D1E9730481C2C800E82400B116
:10D80E0001BE7B01E81000880E1A0142881619012C
:10D81E00E892005A595EC3B400AC3BD072152BD0BF
:10D82E0041EBF6880E1B01F6C103B01C7502FEC05B
:10D83E00A27C01C3E8F0FF8AC6BB7A01D73AC2B018
:10D84E00FF7274E8DDFF89161901D1E9D1E9B8B587
:10D85E00058BDAF7E18A0E1B0180E103BE73018BA3
:10D86E00D0D1E1E852008ACFBE7B0149E849008A57
:10D87E00CB4903D192A31D01565350BB2D03B906BC
:10D88E000033D28BC253E8F1DA1EC536F800E863D6
:10D89E00DA1F5BE817DB8F062D031EC536F800E88E
:10D8AE0052DA1F5B5EA11D0133D2B907004040F76B
:10D8BE00F188161F0132C0C3B400E3FBAC03D0E203
:10D8CE00FBC35051568BF2B9FF008B040AC074296A
:10D8DE0080FC3A7506807C0200741EAC0AC0743659
:10D8EE003C3F741A3C2A7416E8B2F675EEE30AACA5
:10D8FE000AC0740EE8A6F675E3410BC9EB1C33C9DA
:10D90E00EBD92BF283FE02740D83FE0475EB8BF2C2
:10D91E00807C013A75E30BC97501F95E5958C3E86D
:10D92E00A0FF720D8BF2E87BDD73F3B0020AC975AE
:10D93E0002B003F9C35051B0FF368E068B01BF18EB
:10D94E0000B91400F2AEF975024FF85958C353518D
:10D95E0036C41EF40033F683FBFF7418BF06002690
:10D96E008B4F0426803900740E83C72846E2F426B6
:10D97E00C41FEBE3F9EB0303FBF8595BC336C60692
:10D98E00C405003C027605B00CE9C8CE368C1EB636
:10D99E0005161F8916B405A2B805E898FF7304B0E2
:10D9AE0004EBE68C06BB05893EB905E8A0FF72EFD5
:10D9BE008936BD05893EBF058C06C1051EC516B448
:10D9CE0005E85BFF1F7302EBD88E06B5038826C3EE
:10D9DE0005F6C4807524268A470BA8107404B0057A
:10D9EE00EBE5A80875F8A8017412803EC405007511
:10D9FE000B803EB8050075E6EB021607B90B005614
:10DA0E008BF38B3EBF051E068E06C1051F8A670B64
:10DA1E002688650283C704F3A41F5EC43EBF058338
:10DA2E00C7038A26C305E82FEF161FC43EBF05267F
:10DA3E00FE05A0B8052688450133C0268945242653
:10DA4E008945264026894511C43EB905A1BD052646
:10DA5E00880583EF188BC7E9F0CDE8C2FE7303E9A2
:10DA6E00F2CD740B36C53EB303F6470B017404B00A
:10DA7E0005EBECC607E5C6450501AD8BD881E3FF86
:10DA8E000F161F7403E8AEEA268A4600E840ECEB58
:10DA9E00C6E82EFE7304B003EBD7521E161FC70640
:10DAAE006203FFE58C168703C706850348048BF2D5
:10DABE008AC180E101880EC4051F1EE844DB1F5A8F
:10DACE000AC074083C037404B005EBCCB002E9B292
:10DADE00FE161FE85FFE72180657E89E025E1F7262
:10DAEE001326FE058A4718880483EE188BC6EB9F13
:10DAFE00B004EBD6B006EBFA87D95351E8A2021662
:10DB0E001F595BE8890287D973CEB006EBE83C015A
:10DB1E007604B001EBF6720E8BD981E3D8FF740652
:10DB2E00B005EBF0EBFC5150E8F4FD5A5972F536A6
:10DB3E00C43EB303161F0AD274152680670BD8266F
:10DB4E00084F0B26C6450501B0FFE882EBEB9F336D
:10DB5E00C9268A4F0BE88DCB894C04EBF01E535629
:10DB6E00E857D13CFF7507585858B00FEBB65F8F8A
:10DB7E0044025B895C0E26837E1CFF750D5357365F
:10DB8E00C606450316E80ADA5F5B8BF5061F8EC3E1
:10DB9E00837C1C007504C6441E0083C61EB940005B
:10DBAE00ACAA0AC0E0FAEBB3368916C505368C1E50
:10DBBE00C70536893EC905368C06CB05E860FD7370
:10DBCE0002EBA9742A368E1EB503FF7718FF771A5B
:10DBDE00FF771EFF771CFF7716FF770B36FF366F2A
:10DBEE000336C536C905E8BBDA58720783C40CB0D4
:10DBFE0005EBCE363A066F03740783C40CB011EBF7
:10DC0E00F036C536C905585036C7066203FFE536ED
:10DC1E008C16870336C70685034804E8E4D972CC10
:10DC2E0036C536B3035888470B8F47168F471C8F60
:10DC3E00471E8F471A8F4718C644050136C536C58D
:10DC4E0005E860DA36C536B303C607E5C6440501F6
:10DC5E00161FB0FFE878EAE9F0CBE865FC730674AE
:10DC6E0004B002EB9A8BF25136FE06D50036C7068B
:10DC7E00620300E5E82DDA5936880E45037304B0C9
:10DC8E0012EBE0368E1EB5038A6F0BE8E1DB740DE6
:10DC9E0036FF362101368B1E9703E9A00036C43EAF
:10DCAE00DF0036A04503AA36A06F03AAB90B0053B6
:10DCBE00BE39031E161FF3A41F36A12101AB36A1D8
:10DCCE007003AB36A17203AB36A19703AB8A470B39
:10DCDE00AA8B4716AB8B4718AB8B471CAB8B471EDB
:10DCEE00AB5EB90800ACAA3C20E0FA75014F03F117
:10DCFE00803C20740FB02EAAB90300ACAA3C20E0E1
:10DD0E00FA75014F32C0AAE940CB36C536DF008B1B
:10DD1E00D64256E8B9F15E7305B012E936CB8B44A4
:10DD2E000DC46C0F0BC078F18B5C138A14368816F9
:10DD3E0045035036892E7003368C067203E898D848
:10DD4E0058C706AB03FFFFE8D0D7E86FD7E92DFF22
:10DD5E0050C43EF40083FFFF741E262B45047C0541
:10DD6E0026C43DEBF02603450453BB2800F6E35BC7
:10DD7E0005060003F8F8EB01F958C350E8100072DD
:10DD8E00F7268A053CFF74F032E4E8C3FFEBEA8322
:10DD9E00FB14730B8E068B018BFB83C718F8C3F92C
:10DDAE00C3161FE8E9FF7305B006E9A7CA268A0560
:10DDBE003CFF74F426C605FF32E4E893FF72E906D1
:10DDCE001FFE0D8D5503F6451BC07517FF7502E836
:10DDDE00FDF05B36881E4503E8F5EB3CFF7504B09D
:10DDEE0002EBC7E964CA368C06CF0536891ED1050B
:10DDFE00368F06CD0536C41EDF00065336FF36CDF0
:10DE0E0005E82A00368916DF00368C1EE100368EB4
:10DE1E0006CF05368B1ED105C3368F06CD05368F40
:10DE2E0006DF00368F06E10036FF36CD05C35152B0
:10DE3E00B104D3EA8CD903CA8ED95A81E20F0059A4
:10DE4E00C3E8A2FFE83B00720926807D0101750739
:10DE5E00B005E8C4FFEB8AE8A9E9E888C88B44045A
:10DE6E00368B0ED305894C04E8AEFFE9DCC9E875A4
:10DE7E00FFE80E0072DC26807D010074D3E88BE98A
:10DE8E00EBD8161F890ED305E8F0FEB0068B0ED325
:10DE9E00058D5503061FC33C037204B001EBB61685
:10DEAE001FE8D7FE061F723DF6451B80740633C071
:10DEBE0033D2EB16FEC87C0FFEC87C1E9287D103B0
:10DECE004513135515EB039287D1894524895526A1
:10DEDE00E812C88954068904EB919287D103452430
:10DEEE00135526EBE5B006EBB48CDE161F3C03771C
:10DEFE005052E886FE5A7304B006EBEB3C027332C6
:10DF0E003C00268A451B74120AF67404B00DEBEA27
:10DF1E00A88074552688551BEBBE32E4A880740881
:10DF2E0026C47D1C268A6505E8BAC78BD08954069F
:10DF3E00EBE626F6451B80743026C47D1C32DBEBE7
:10DF4E004DFEC8FEC83C037628B4012C047406B4FA
:10DF5E0003FEC8751450E81FDC587211E862D28AAD
:10DF6E00E0B0FF7502FEC0EBC7B001EBA1B005EB50
:10DF7E00FA515250568AC3E811DC720CE858E22668
:10DF8E008A5E0126C47E12F85E585A5972DF26F751
:10DF9E004504004074D3FEC8FEC87407C606490186
:10DFAE000CEB05C606490103B0168AE3A3470133FD
:10DFBE00C0A34A01A25401890E590189165501893F
:10DFCE00365701061F8BF71607BB4701E825D336D8
:10DFDE00A15901EB923C027204B001EB92161FE8BC
:10DFEE0099FD7304B006EBF30AC07513268B4D1919
:10DFFE00268B5517E8EEC6894C04895406EBD426B9
:10E00E00894D19268955172680651BBFEBEFFAFC43
:10E01E002E8916E3002E89263A032E8C163C03BC5D
:10E02E0016438CC88ED0368C1E09013689360701F0
:10E03E00E8E8015683C60A0E07BF0D00B003AAFE1C
:10E04E00C8AA32C0AAAAB90400F3A5B103B020F33E
:10E05E00AA83C70CB0C3AA5E8BC6AB8CD8AB804C60
:10E06E000403368936FC00368C1EFE00C534E8AA41
:10E07E0001F644040874F5368936F800368C1EFA1B
:10E08E0000BD1843C53483FEFF7468E88D01F74464
:10E09E0004008075EF368A0E3A0132ED884C0A364E
:10E0AE008A16000132F636000E00011E5636C51EC7
:10E0BE003F018B37434326885600268876015351FD
:10E0CE0052E87CCC268B4602363B0601017604369E
:10E0DE00A301015A595B8CD85E1F26897612268CB5
:10E0EE005E141E56FEC6FEC28ED883C55EE2C35EA9
:10E0FE001FEB910E1F8BFD8B2E0101B86140A33ECD
:10E10E000303C5051000A3F0008BD081EA61408B9C
:10E11E00EA03EF81EDB70255BF184383C7188A0E85
:10E12E00000132ED055E00AB83C75CE2F783EF5E64
:10E13E00B8FFFFAB83C50FB104D3ED8CCA03D5BBBB
:10E14E000F008B0EE3008CCD890EE3008EC5268C5E
:10E15E00066D0133C08ED88EC0BF82008BC5C60639
:10E16E00C000EAC706C1003206A3C300C7060000FE
:10E17E00792CA30200B91100F3ABC70680001D066F
:10E18E00C70684002106C7068800000189168A008A
:10E19E00C7068C003106C70690003106C7069400EC
:10E1AE003D08C70698007708C7069C00BF34C7060F
:10E1BE00A0003106B90C0033C0BFA800F3AB0E1F90
:10E1CE000E07B82A02050F00B104D3E88CDF03F85E
:10E1DE0047893E8B015552A1E3008BD7E875C90ED6
:10E1EE001FBF180033C0ABAAB0FFB91100F3AA0EBF
:10E1FE00078C1EF600BED505E8D5C80E1F0E075AB1
:10E20E005D59BE18438B3EF0002BCF3BFE7607497F
:10E21E0003F903F141FD8EC5E9D2C036C6062D01C4
:10E22E001A36C6062E010036C6062F010036C70660
:10E23E0030010000065350BB2D010E07E8B5D05833
:10E24E005B07C3000000000000000000000000009B
:10E25E0000000000000000000000000000000000B0
:10E26E0000000000000000000000000000000000A0
:10E27E000000000000000000000000000000000090
:10E28E000000000000000000000000000000000080
:10E29E000000000000000000000000000000000070
:10E2AE000000000000000000000000000000000060
:10E2BE000000000000000000000000000000000050
:10E2CE000000000000000000000000000000000040
:10E2DE000000000000B830FF8ED88EC08ED0A3781C
:10E2EE0001B800018BE0A36A01B049A25C0133C002
:10E2FE00A35201A35801A35A01A27C01BB6001B92C
:10E30E000E00890743434975F9B84000A35001A395
:10E31E007401A37E01B80000A37201A38001B8406E
:10E32E0000A37601A37A0133C08EC0BE3B088BF8E2
:10E33E00B900022E8B04464626890547474981FEC1
:10E34E004F0875EFB8B707BB50FF2689054747261C
:10E35E00891D4747494975F2BF8003B8B60626891D
:10E36E0005474726891DBBEE07B80001D5000AC038
:10E37E007503BBE707891E5D01BBDB07E88D098BC3
:10E38E001E5D01E88609BBB807E88009EA00004077
:10E39E0000B830FF8ED88ED0BC0001BBF407E86BFE
:10E3AE0009E84305BB0001E88C05E8930522C0741B
:10E3BE00E03C447502EB2B3C477503E941013C53AD
:10E3CE007503E9FC013C4C7503E97F023C52750371
:10E3DE00E974033C547503E94904BB1108E82C09A0
:10E3EE00EBAF43E865050AC97515E849050AC0751E
:10E3FE00E98B16520181C2800089165401EB408AC6
:10E40E00073C3A750C8916500143E83E050AC9745B
:10E41E00C9891652018A073C2C740E0AC075BB813D
:10E42E00C2800089165401EB1643E81E05E8060566
:10E43E000AC974A68A070AC075A042891654018EAD
:10E44E000650018B36520183E6F032C0A25601E827
:10E45E002300E807090AC07512A056013C0272EFAC
:10E46E008B1E5401891E5201E926FF89365201E89E
:10E47E00D308E91CFFA15001E81504B03AE8E408FE
:10E48E008BC6E80B04BB1908E88108BF0001B91060
:10E49E0000E82800E2FBBB1C08E87008BF0001B9C9
:10E4AE0010008A05473C2072093C7F7305E8B408CA
:10E4BE00EB05B02EE8AD08E2E9E92104B020E8A3AF
:10E4CE0008A056010AC0751A3B365201740FB020CF
:10E4DE008805E88F08B020E88A084647C3B001A235
:10E4EE005601A056013C0175E5268A048805E8A66A
:10E4FE000346473B3654017505B002A25601C3329E
:10E50E00C0A27C0143E843040AC9741D8A073C3A41
:10E51E0075108916740189167E0143E82D040AC907
:10E52E00741989167201E80D048A070AC074373C03
:10E53E002C750843E814040AC97503E99CFEA174FE
:10E54E0001A37E018A073C3A750C89167E0143E8C9
:10E55E00F9030AC974E589168001E8D9030AC07562
:10E56E00DAB001A27C01A07C010AC07414A17E0164
:10E57E008EC08B368001268A04A27D01B0CC2688FF
:10E58E00042EC606000005E6008E1678018B266A5C
:10E59E0001A1680150A1740150A1720150A1600146
:10E5AE008B1E62018B0E64018B1666018B2E6C0125
:10E5BE008B366E018B3E70018E067A018E1E7601B1
:10E5CE00CF43E886030AC9741F8A073C3A750C8943
:10E5DE0016500143E874030AC9746D89165A01E88E
:10E5EE0054038A070AC07560A150018EC0E8A002CC
:10E5FE00B03AE86F078B365A018BC6E89202BB1C05
:10E60E0008E80807268A04E88D02B020E85507E8D6
:10E61E00D502BB0001E81E038A070AC075074689AA
:10E62E00365A01EBC33C2D75074E89365A01EBB8AD
:10E63E003C2E7503E95AFDE811030AC9740A2688AF
:10E64E00144689365A01EBA0E98FFD43E8FC020A15
:10E65E00C974148A073C3A75108916500143E8EACA
:10E66E00020AC97430EB0233D28A070AC075268BB0
:10E67E00F28E065001B02EE8EA06E8C806E8C0029F
:10E68E003C53746B3C3A74103C0D74E93C0A74E5CF
:10E69E00E8B206EBF3E942FDE816028AC88AD8E82A
:10E6AE000F028AF002C8E808028AD002C88BFA0369
:10E6BE00FEE8FD01A25F0102C80ADB7415E8F10154
:10E6CE0002C88A3E5F010AFF750426880547FECB05
:10E6DE0075EBE8DC0102C1750DA05F010AC074A8DC
:10E6EE00E8FA01E9ABFCBBF707E82006E9A2FCE873
:10E6FE005306A25F01E8B9018AD88AC8E8B2018A36
:10E70E00F002C8E8AB018AD002C88BFA03FE80EB98
:10E71E0003722B7416E8990102C88A3E5F0180FFCE
:10E72E0031750426880547FECB75EAE8830102C1E0
:10E73E003CFF750AA05F013C3974A5E94AFFBB0492
:10E74E0008E8C805E94AFC43E8EB01E8F2010AC013
:10E75E007506E87F00E939FCBE20092E3A04740DD7
:10E76E002E8A4C010AC9746983C606EBEE2E8A44C2
:10E77E00013C0F750C2E8B7402438A07E8C101EB26
:10E78E00DA0AC0744C2E8A4C012E8B5C04E87C0590
:10E79E00B03DE8CF052E8B5C0280E107535180F926
:10E7AE000175078A07E8EF00EB058B07E8E100B07B
:10E7BE0020E8B005E83001BB0001E88E010AC974FB
:10E7CE000D595B80F90175048817EB028917E9C0B2
:10E7DE00FBE906FCBE88082E8B1C0BDB7411E82BA4
:10E7EE000546462E8B1C8B07E8A5004646EBE8BB7C
:10E7FE000A09E81705BF8201BB1009B110A1680113
:10E80E0025D50FD1E07205C6052EEB052E8A2F8871
:10E81E002D4347FEC975ECC60500BB8201E8E40432
:10E82E00E9BA0043E824010AC974198A073C3A750B
:10E83E000C8916740143E812010AC9740D89167207
:10E84E0001E8F2008A070AC07403E98DFB2EC606A2
:10E85E00000005E6008E1678018B266A01A168017C
:10E86E000D000150A1740150A1720150A160018BE5
:10E87E001E62018B0E64018B1666018B2E6C018B52
:10E88E00366E018B3E70018E067A018E1E7601CF9A
:10E89E00508AC4E801005850D0E8D0E8D0E8D0E85B
:10E8AE00E8010058240F04303C3A72020407E9B321
:10E8BE000432C0E80800D0E0D0E0D0E0D0E08AE832
:10E8CE00E88204E87A003C3072123C3A720A3C410B
:10E8DE00720A3C4773062C072C300AC5C3B00DE8EC
:10E8EE008204B00AE97D04BB000132C9E856043C3B
:10E8FE000D743B3C0A74373C08741B3C7F74173C08
:10E90E002072E93C8073E580F94F73E08807E85385
:10E91E000443FEC1EBD622C974D24BFEC9B008E83F
:10E92E004204B020E83D04B008E83804EBBEE8AC81
:10E93E00FFB0008807C38A073C20750343EBF7C37B
:10E94E003C6172063C7B730204E0C3E8E8FF32C907
:10E95E0033D28A07E8E9FF3C30721F3C3A720A3C18
:10E96E004172173C4773132C072C30D1E2D1E2D100
:10E97E00E2D1E20AD043FEC1EBD8C380FC07750496
:10E98E00E8C203CF80FC0275068AC2E8D603CF80A8
:10E99E00FC0B7508E8C5037402B0FFCF80FC007550
:10E9AE00FAB830FF8ED88ED0BC0001E9B000501EF0
:10E9BE00B830FF8ED8891E6201890E6401BB4F08E4
:10E9CE0033C9EB57501EB830FF8ED8891E620189AD
:10E9DE000E6401BB600833C9EB41501EB830FF8E88
:10E9EE00D8891E6201890E6401BB690833C9EB2BFD
:10E9FE00501EB830FF8ED8891E6201890E6401BB8D
:10EA0E007108B90100EB14501EB830FF8ED8891E64
:10EA1E006201890E6401BB7B0833C958A376015885
:10EA2E00A3600189166601892E6C0189366E0189F3
:10EA3E003E70018C067A01582BC1A3720158A37443
:10EA4E00015825D50EA3680189266A018C16780116
:10EA5E00B830FF8ED0BC0001E8B102E876FDA07C94
:10EA6E00010AC07414A17E018EC08B368001A07D78
:10EA7E000126880432C0A27C01E915F9CF4E6F77CA
:10EA8E0020696E766F6B696E67204F706572617468
:10EA9E00696E672053797374656D2E2E2E0D0A00E4
:10EAAE004350552054595045203A200038303838BC
:10EABE000D0A005632300D0A005D20004572726F4D
:10EACE007220696865780D0A004572726F72207344
:10EADE007265630D0A004572726F720D0A00203A5C
:10EAEE0000203A20003A3030303030303031464657
:10EAFE000D0A00533930333030303046430D0A00A2
:10EB0E00E90650FFFF0650FF150750FF2B0750FF79
:10EB1E00420750FF0D0A446976696465206572727A
:10EB2E006F720D0A000D0A537465700D0A000D0AFE
:10EB3E004E4D490D0A000D0A427265616B0D0A00B9
:10EB4E000D0A4F766572666C6F770D0A00C4086009
:10EB5E0001C8086201CD086401D2086601D70868B1
:10EB6E0001DC087401E1087601E6087801EB087A09
:10EB7E0001F0086A01F6086C01FB086E01000970CD
:10EB8E0001050972010000000041583D0020425865
:10EB9E003D002043583D002044583D0020464C3D4A
:10EBAE00002043533D002044533D002053533D006D
:10EBBE002045533D000D0A53503D002042503D006C
:10EBCE002053493D002044493D002049503D00203E
:10EBDE00464C623D002E2E2E2E4F444954535A2E33
:10EBEE00412E502E43410F56090000420F6E090070
:10EBFE0000430F8C090000440FAA090000450FAA1C
:10EC0E0009000046026801310A490FDA0900005373
:10EC1E000FE609000000000000000058026001FE2F
:10EC2E000948016101010A4C016001040A0000005B
:10EC3E0000000058026201070A480163010A0A4CEB
:10EC4E000162010D0A50026C01100A000000000062
:10EC5E000058026401130A48016501160A4C01644A
:10EC6E0001190A530274011C0A000000000000582A
:10EC7E000266011F0A48016701220A4C016601253E
:10EC8E000A49027001280A530276012B0A0000007D
:10EC9E0000000053027A012E0A000000000000500E
:10ECAE00027201330A00000000000049026E0136B4
:10ECBE000A50026A01390A530278013C0A00000028
:10ECCE00000000415800414800414C0042580042AB
:10ECDE004800424C00425000435800434800434C09
:10ECEE0000435300445800444800444C004449003B
:10ECFE0044530045530046004950005349005350B9
:10ED0E00005353005152531E8CDAEB065152531ED0
:10ED1E008CCA32C98EDA8A070AC07405FEC143EB6B
:10ED2E00F51F5B2EC6060000042E880E01002E89EC
:10ED3E001E02002E89160400E6002EA000000AC056
:10ED4E0075F85A59C32EC606000001E6002EA00023
:10ED5E00000AC075F82EA0010022C0C32EC6060000
:10ED6E000003EBE72EC6060000022EA20100EBDB2D
:10ED7E00FFFFFFFFFFFFFFFFFFFFFFFFFFFFFFFF95
:10ED8E00FFFFFFFFFFFFFFFFFFFFFFFFFFFFFFFF85
:10ED9E00FFFFFFFFFFFFFFFFFFFFFFFFFFFFFFFF75
:10EDAE00FFFFFFFFFFFFFFFFFFFFFFFFFFFFFFFF65
:10EDBE00FFFFFFFFFFEA100050FFFFFFFFFFFFFF07
:10EDCE00FFFFFFFFFFE9A901160030004A006400B3
:10EDDE000000000000000000000000000000000025
:10EDEE000000000000000000000000000000000015
:10EDFE000000000000000000000000000000000005
:10EE0E0000000000000000000000000000000000F4
:10EE1E0000000000000000000000000000000000E4
:10EE2E0000000000000000000000000000000000D4
:10EE3E000000000000000000850040000380D100AB
:10EE4E000201434F4E2020202020970040000080DA
:10EE5E00D100ED004155582020202020A90040006F
:10EE6E000080D100F40050524E2020202020BB0004
:10EE7E0040000880D100FB00434C4F434B20202024
:10EE8E00FFFFFFFF0020D100090104000000000079
:10EE9E000000000000002E891ECD002E8C06CF0033
:10EEAE001E50B850FF8ED8891E08008C060A0058D6
:10EEBE001FCB56BE1000EB1A9056BE2000EB1390DF
:10EECE0056BE3000EB0C9056BE4000EB059056BE81
:10EEDE00500050515257551E0653B850FF8ED88BC6
:10EEEE00C6A206002EC536CD008B440325FFFE8933
:10EEFE004403E6008B4403A9000174F8F6C4807540
:10EF0E000232C05B071F5D5F5A59585ECB0000008E
:10EF1E0000000000000000000000000000000000E3
:10EF2E0000000000000000000000000000000000D3
:10EF3E0000000000000000000000000000000000C3
:10EF4E0000000000000000000000000000000000B3
:10EF5E0000000000000000000000000000000000A3
:10EF6E000000000000000000000000000000000093
:10EF7E0000BD00FF8ED5BC00010E07B85E008ED816
:10EF8E008CC805C000A30500C7060F0000FF8CC883
:10EF9E00A30D00C7060B007300051700A30900EAB6
:10EFAE0000005E0000EB6390000000000000000017
:10EFBE0000000000010000020802005000000000E6
:10EFCE000000000000000000000000000000000033
:10EFDE0000000000000000000000000014005E00B1
:10EFEE0011005E0034005E00000000000000000012
:10EFFE0000000000160000000000000000000000ED
:10F00E0000000000000000000000FC33F68BFE2E16
:10F01E008B0E0F0083F901751DB9000833DB4174A7
:10F02E00108ED98A07F6D088073A07F6D08807746B
:10F03E00ED2E890E0F008CC88ED8B8F007D1E8D10E
:10F04E00E8D1E8D1E82BC88EC1B9E207D1E9F3A522
:10F05E0006B8B10050CB2EA105008ED82EA1090006
:10F06E008EC033F68BFEB90028F3A52EC5360B00E5
:10F07E002E8B160F00FA8CC88ED0BCD900FB2EFF3B
:10F08E001E07002E8C0605002E893E03009AEC000A
:10F09E004000FBFC8CCB83EB108EC333F68BFEB99A
:10F0AE008000F3A5B450CD211E0E1FBADF06B82482
:10F0BE0025CD211F2E8A1611000AD27406FECAB45F
:10F0CE000ECD21E885000E1FA01300988BC833DBF0
:10F0DE00B43ECD21BB0200B43ECD2143E2F9BAFBD2
:10F0EE0006B002B43DF9CD217305E81905EB1350B6
:10F0FE00BB0100B43ECD21588BD8B445CD21B445CB
:10F10E00CD21BA0407B002E85705BA0D07B001E8E1
:10F11E004F05BE15001E078BFEB1FFFEC1ACAA0A3D
:10F12E00C075F84FB00DAA880E14000E07BA22074C
:10F13E00BB35008C4F048C4F088C4F0C33C0B44B36
:10F14E00F9CD21BACD07E8BD04EBFE0E1FBBFFFFC4
:10F15E00B448CD21B448CD21A34D00A34900B80039
:10F16E0037CD2188161500BA1607B8003DF9CD2106
:10F17E007203E9A9000E1FE80F04A013002C0576F8
:10F18E003B988B1E47008B164900C53E0300C57D7C
:10F19E0004891D8955020E1FC43E470026C705FF70
:10F1AE00FF26894504B328F6E38BC801064700B84D
:10F1BE0006000106470003F833C0F3AAE8CA03FEAF
:10F1CE000E1200742F1EC43E4700C51E03008B474F
:10F1DE00132689058B471526894502897F138C478F
:10F1EE001526C74504FF008B5F111F83C310011E38
:10F1FE004700EBC8E892038B1E4900A14D008EC05C
:10F20E002BD8B44ACD21068CC0488EC026C7060125
:10F21E0000080007C3BA7307E80B04E98D008BD80A
:10F22E0033C933D2B80242CD21A3430033D2B80042
:10F23E0042CD218CCAA14300050F00B104D3E82BA7
:10F24E00D083EA118EDA8EC233D2368B0E4300B4DF
:10F25E003FF9CD219C0E1F50B43ECD21589D720416
:10F26E003BC87409BA1607E89C03E908FFE85C027C
:10F27E00E8400272F58AE0E8390280FC42750FE838
:10F28E00550374273D6400738CA21200EB1D80FCA5
:10F29E00437403EB1D903C4F7511E8160272CB3C84
:10F2AE004E7508B433B0018AD0CD210E1FE8B102DD
:10F2BE00EBC180FC447403E97A018CCB8EDB89367A
:10F2CE0061008C066300E8C00233C0A30700A149A9
:10F2DE0000A30900A34B00061F8BD68EC3BB4900AB
:10F2EE00B003B44BF9CD211E070E1F7305E81A03A8
:10F2FE00EBB906560E07BB0600E8A802BB0800E8ED
:10F30E00A2020E1FA15F003B060F0072045E07EB08
:10F31E00DCA34900A15D00A34700C51607008BF2D0
:10F32E0083C6042EC43E03008B04A90080741DA95D
:10F33E00010074082689550C268C5D0EA9080074F0
:10F34E000826895508268C5D0AE9A1002EA05C00CE
:10F35E000AC0750D2EC70647000000B8FFFFE9B1C1
:10F36E0000988BC88AF4268A5510260045102EC5A3
:10F37E001E61002EC42E030026C46E0026837E1846
:10F38E00FF740626C46E18EBF32EA147002689469D
:10F39E00182EA149002689461A2EC42E47002E8308
:10F3AE000647005E26C74618FFFF26C64617FF8B88
:10F3BE0037434326895600B453CD21268B46020689
:10F3CE002EC43E0300263B451107760B5E07BA9A04
:10F3DE0007E85202E9D4FE1E522EC51607002689F2
:10F3EE005612268C5E145A1F42FEC6E2862EC43E6C
:10F3FE000300268B4D17268B55192EC53607002672
:10F40E00897517268C5D198B042EA30700890C892C
:10F41E0054025E07407403E9D8FEE98EFE80FC516B
:10F42E007526E8B20174F30AE475EFB438BAFFFF3B
:10F43E00CD21EBE680FC4675E4E89B0174DC3D646F
:10F44E0000735BA21300EBD280FC57750E8AD0B806
:10F45E00013788161500CD21E950FE80FC41750E4E
:10F46E003C467507B8033732D2CD21E93DFE80FC0C
:10F47E0053752BC606150000BF23078845FFE832DB
:10F48E00000AC0741C3C207205880547EBF0C605C7
:10F49E0000E81F003C0A7503E81800E9D5FDE97481
:10F4AE00FDC60500BF1500E809003C2072E0880586
:10F4BE0047EBF48B0E4300E3118B364500268A048E
:10F4CE00FF0E4300FF064500F8C3F9C38B0E430041
:10F4DE00E3F8E8990033F68BFEE859003C2072F908
:10F4EE005156578BEE4DBE2F07B5008BFD8A0C463D
:10F4FE00E30EF3A69F03F19EAC75F05F5E59EB052C
:10F50E005F5E59B05AAAE82400E8360075F8E82480
:10F51E0000AAE81800AA3C2077F83C0A74BB26C65D
:10F52E0045FF00E80700AA3C0A75F8EBACE3262677
:10F53E008A044649C3E31E268A044649E80300743A
:10F54E00F4C33C2074FB3C0974F73C3D74F33C2C33
:10F55E0074EF3C3BC359893E430033F68936450070
:10F56E00C3E84FFF72073C0A75F7E846FFC35156D2
:10F57E001E061F33F6AC3C6172093C7A77052C20CF
:10F58E008844FFE2F01F5E59C336A14700050F0005
:10F59E00D1E8D1E8D1E8D1E8360106490033C036CA
:10F5AE00A34700C32E8E1E09002E031E07008B07D5
:10F5BE002EFF3607002EA30700BB4F0036FF1E0797
:10F5CE00002E8F060700C358E94AFC2C3072063C09
:10F5DE00097702F8C3F9C333DBE8EFFF72E99353FF
:10F5EE00BB0A00F7E35B02C380D40072DA93E8C271
:10F5FE00FE720E0AC075E236FF06430036FF0E4558
:10F60E00008BC30BC0C30E078BF2BABB07EB179070
:10F61E000E1FB409CD21268A140AD27407B402CD66
:10F62E002146EBF28BD3B409CD21C3505351525620
:10F63E001E5333C0B43DF9CD215A721E061F8BD80E
:10F64E00B900FFB43FF9CD2172108BF2813C4D5AB7
:10F65E007503F9EB05B43EF9CD211F5E5A595B587F
:10F66E00C3E81A007307BAF206E81200C333C0B437
:10F67E0044CD21F6C28075F4B43ECD21EBE8B43D05
:10F68E00F9CD21C383C406585B595A5E5F5D1F07CF
:10F69E0050B419CD2158CF5C4445565C4E554C00A4
:10F6AE005C4445565C434F4E005C4445565C4155A8
:10F6BE0058005C4445565C50524E005C434F4E46DB
:10F6CE0049472E535953005C434F4D4D414E442EE6
:10F6DE00434F4D000742554646455253420542524E
:10F6EE0045414B43055348454C4C530644455649FA
:10F6FE004345440546494C455346085357495443E0
:10F70E004841525708415641494C444556410743DA
:10F71E004F554E54525951000D0A556E7265636F16
:10F72E00676E697A656420636F6D6D616E642069C2
:10F73E006E20434F4E4649472E5359530D0A240D02
:10F74E000A536563746F722073697A6520746F6FE4
:10F75E00206C6172676520696E2066696C65202475
:10F76E000D0A426164206F72206D697373696E6752
:10F77E002024436F6D6D616E6420496E74657270E6
:10F78E00726574657200534420436172643A20724C
:10F79E006561643531323A20435243206572726F8F
:10F7AE007220282530347820213D20253034782CC5
:10F7BE002072657472793D2564290A0D00496D61C8
:10F7CE0067652066696C652025732F44524956453E
:10F7DE0025632E44534B2069732061737369676EE2
:10F7EE00656420746F2064726976652025630A0D46
:10F7FE00006469736B5F696F63746C3A2070647236
:10F80E00763D25642C20636D643D25642C20627545
:10F81E0066663D3078256C783A207265733D2564B6
:10F82E000A0D00534420436172643A2020726561D0
:10F83E00643531323A20616464723D25386C642C33
:10F84E00206F6666733D25642C20636F756E743D64
:10F85E0025640A0D00534420436172643A20777286
:10F86E006974653531323A20616464723D25386CB5
:10F87E00642C206F6666733D25642C20636F756E55
:10F88E00743D25640A0D00534420436172643A208E
:10F89E0077726974653531323A206661696C6564D8
:10F8AE0020746F2067657420746F6B656E2C2074E6
:10F8BE00696D656F75740A0D005573652050574D4F
:10F8CE00332020252E32664D487A284475747920CF
:10F8DE00252E316625252920666F7220383038385E
:10F8EE0020636C6F636B0A0D005344204361726496
:10F8FE003A2077726974653531323A2074696D65D4
:10F90E006F75742C20726573706F6E7365206973DA
:10F91E0020253032780A0D00534420436172643A38
:10F92E0020434D4435382C2052333D25303278203B
:10F93E002530327820253032782025303278202537
:10F94E003032780A0D0025733A204552524F523A02
:10F95E0020636C6F636B2073706565642025642073
:10F96E006973206E6F7420737570706F7274656436
:10F97E000A0D00534420436172643A20434D4438CB
